{
  "_format": "hh-sol-artifact-1",
  "contractName": "UserProfile",
  "sourceName": "contracts/UserProfile.sol",
  "abi": [
    {
      "inputs": [
        {
          "internalType": "string",
          "name": "name",
          "type": "string"
        },
        {
          "internalType": "string",
          "name": "bio",
          "type": "string"
        },
        {
          "internalType": "string",
          "name": "avatar",
          "type": "string"
        }
      ],
      "name": "createOrUpdateProfile",
      "outputs": [],
      "stateMutability": "nonpayable",
      "type": "function"
    },
    {
      "inputs": [
        {
          "internalType": "address",
          "name": "user",
          "type": "address"
        }
      ],
      "name": "getProfile",
      "outputs": [
        {
          "components": [
            {
              "internalType": "string",
              "name": "name",
              "type": "string"
            },
            {
              "internalType": "string",
              "name": "bio",
              "type": "string"
            },
            {
              "internalType": "string",
              "name": "avatar",
              "type": "string"
            }
          ],
          "internalType": "struct UserProfile.Profile",
          "name": "",
          "type": "tuple"
        }
      ],
      "stateMutability": "view",
      "type": "function"
    },
    {
      "inputs": [
        {
          "internalType": "address",
          "name": "",
          "type": "address"
        }
      ],
      "name": "profiles",
      "outputs": [
        {
          "internalType": "string",
          "name": "name",
          "type": "string"
        },
        {
          "internalType": "string",
          "name": "bio",
          "type": "string"
        },
        {
          "internalType": "string",
          "name": "avatar",
          "type": "string"
        }
      ],
      "stateMutability": "view",
      "type": "function"
    }
  ],
  "bytecode": "0x608060405234801561001057600080fd5b50610a7b806100206000396000f3fe608060405234801561001057600080fd5b50600436106100415760003560e01c80630f53a47014610046578063639ab2ce14610076578063bbe1562714610092575b600080fd5b610060600480360381019061005b919061068d565b6100c4565b60405161006d9190610869565b60405180910390f35b610090600480360381019061008b91906106b6565b6102d2565b005b6100ac60048036038101906100a7919061068d565b61038a565b6040516100bb9392919061081d565b60405180910390f35b6100cc61054c565b6000808373ffffffffffffffffffffffffffffffffffffffff1673ffffffffffffffffffffffffffffffffffffffff1681526020019081526020016000206040518060600160405290816000820180546101259061098d565b80601f01602080910402602001604051908101604052809291908181526020018280546101519061098d565b801561019e5780601f106101735761010080835404028352916020019161019e565b820191906000526020600020905b81548152906001019060200180831161018157829003601f168201915b505050505081526020016001820180546101b79061098d565b80601f01602080910402602001604051908101604052809291908181526020018280546101e39061098d565b80156102305780601f1061020557610100808354040283529160200191610230565b820191906000526020600020905b81548152906001019060200180831161021357829003601f168201915b505050505081526020016002820180546102499061098d565b80601f01602080910402602001604051908101604052809291908181526020018280546102759061098d565b80156102c25780601f10610297576101008083540402835291602001916102c2565b820191906000526020600020905b8154815290600101906020018083116102a557829003601f168201915b5050505050815250509050919050565b6040518060600160405280848152602001838152602001828152506000803373ffffffffffffffffffffffffffffffffffffffff1673ffffffffffffffffffffffffffffffffffffffff168152602001908152602001600020600082015181600001908051906020019061034792919061056d565b50602082015181600101908051906020019061036492919061056d565b50604082015181600201908051906020019061038192919061056d565b50905050505050565b60006020528060005260406000206000915090508060000180546103ad9061098d565b80601f01602080910402602001604051908101604052809291908181526020018280546103d99061098d565b80156104265780601f106103fb57610100808354040283529160200191610426565b820191906000526020600020905b81548152906001019060200180831161040957829003601f168201915b50505050509080600101805461043b9061098d565b80601f01602080910402602001604051908101604052809291908181526020018280546104679061098d565b80156104b45780601f10610489576101008083540402835291602001916104b4565b820191906000526020600020905b81548152906001019060200180831161049757829003601f168201915b5050505050908060020180546104c99061098d565b80601f01602080910402602001604051908101604052809291908181526020018280546104f59061098d565b80156105425780601f1061051757610100808354040283529160200191610542565b820191906000526020600020905b81548152906001019060200180831161052557829003601f168201915b5050505050905083565b60405180606001604052806060815260200160608152602001606081525090565b8280546105799061098d565b90600052602060002090601f01602090048101928261059b57600085556105e2565b82601f106105b457805160ff19168380011785556105e2565b828001600101855582156105e2579182015b828111156105e15782518255916020019190600101906105c6565b5b5090506105ef91906105f3565b5090565b5b8082111561060c5760008160009055506001016105f4565b5090565b600061062361061e846108bc565b61088b565b90508281526020810184848401111561063b57600080fd5b61064684828561094b565b509392505050565b60008135905061065d81610a2e565b92915050565b600082601f83011261067457600080fd5b8135610684848260208601610610565b91505092915050565b60006020828403121561069f57600080fd5b60006106ad8482850161064e565b91505092915050565b6000806000606084860312156106cb57600080fd5b600084013567ffffffffffffffff8111156106e557600080fd5b6106f186828701610663565b935050602084013567ffffffffffffffff81111561070e57600080fd5b61071a86828701610663565b925050604084013567ffffffffffffffff81111561073757600080fd5b61074386828701610663565b9150509250925092565b6000610758826108ec565b61076281856108f7565b935061077281856020860161095a565b61077b81610a1d565b840191505092915050565b6000610791826108ec565b61079b8185610908565b93506107ab81856020860161095a565b6107b481610a1d565b840191505092915050565b600060608301600083015184820360008601526107dc828261074d565b915050602083015184820360208601526107f6828261074d565b91505060408301518482036040860152610810828261074d565b9150508091505092915050565b600060608201905081810360008301526108378186610786565b9050818103602083015261084b8185610786565b9050818103604083015261085f8184610786565b9050949350505050565b6000602082019050818103600083015261088381846107bf565b905092915050565b6000604051905081810181811067ffffffffffffffff821117156108b2576108b16109ee565b5b8060405250919050565b600067ffffffffffffffff8211156108d7576108d66109ee565b5b601f19601f8301169050602081019050919050565b600081519050919050565b600082825260208201905092915050565b600082825260208201905092915050565b60006109248261092b565b9050919050565b600073ffffffffffffffffffffffffffffffffffffffff82169050919050565b82818337600083830152505050565b60005b8381101561097857808201518184015260208101905061095d565b83811115610987576000848401525b50505050565b600060028204905060018216806109a557607f821691505b602082108114156109b9576109b86109bf565b5b50919050565b7f4e487b7100000000000000000000000000000000000000000000000000000000600052602260045260246000fd5b7f4e487b7100000000000000000000000000000000000000000000000000000000600052604160045260246000fd5b6000601f19601f8301169050919050565b610a3781610919565b8114610a4257600080fd5b5056fea2646970667358221220c0f036c284712fcb2e6c63d970d6a4cf9ef7fac861b7f0f5976c94b8424c6ab064736f6c63430008000033",
  "linkReferences": {},
  "deployedLinkReferences": {}
}