{
  "_format": "hh-sol-artifact-1",
  "contractName": "FreelanceDAO",
  "sourceName": "contracts/FreelanceDAO.sol",
  "abi": [
    {
      "anonymous": false,
      "inputs": [
        {
          "indexed": false,
          "internalType": "uint256",
          "name": "projectId",
          "type": "uint256"
        }
      ],
      "name": "DisputeRaised",
      "type": "event"
    },
    {
      "anonymous": false,
      "inputs": [
        {
          "indexed": false,
          "internalType": "uint256",
          "name": "projectId",
          "type": "uint256"
        },
        {
          "indexed": false,
          "internalType": "bool",
          "name": "voteForFreelancer",
          "type": "bool"
        }
      ],
      "name": "DisputeResolved",
      "type": "event"
    },
    {
      "anonymous": false,
      "inputs": [
        {
          "indexed": false,
          "internalType": "address",
          "name": "user",
          "type": "address"
        },
        {
          "indexed": false,
          "internalType": "string",
          "name": "name",
          "type": "string"
        },
        {
          "indexed": false,
          "internalType": "string",
          "name": "bio",
          "type": "string"
        },
        {
          "indexed": false,
          "internalType": "string",
          "name": "avatar",
          "type": "string"
        }
      ],
      "name": "ProfileUpdated",
      "type": "event"
    },
    {
      "anonymous": false,
      "inputs": [
        {
          "indexed": false,
          "internalType": "uint256",
          "name": "projectId",
          "type": "uint256"
        }
      ],
      "name": "ProjectCompleted",
      "type": "event"
    },
    {
      "anonymous": false,
      "inputs": [
        {
          "indexed": false,
          "internalType": "uint256",
          "name": "projectId",
          "type": "uint256"
        },
        {
          "indexed": false,
          "internalType": "address",
          "name": "client",
          "type": "address"
        },
        {
          "indexed": false,
          "internalType": "address",
          "name": "freelancer",
          "type": "address"
        }
      ],
      "name": "ProjectCreated",
      "type": "event"
    },
    {
      "anonymous": false,
      "inputs": [
        {
          "indexed": false,
          "internalType": "uint256",
          "name": "projectId",
          "type": "uint256"
        }
      ],
      "name": "TermsAccepted",
      "type": "event"
    },
    {
      "inputs": [
        {
          "internalType": "uint256",
          "name": "projectId",
          "type": "uint256"
        }
      ],
      "name": "acceptTerms",
      "outputs": [],
      "stateMutability": "payable",
      "type": "function"
    },
    {
      "inputs": [
        {
          "internalType": "uint256",
          "name": "projectId",
          "type": "uint256"
        }
      ],
      "name": "confirmCompletion",
      "outputs": [],
      "stateMutability": "nonpayable",
      "type": "function"
    },
    {
      "inputs": [
        {
          "internalType": "string",
          "name": "name",
          "type": "string"
        },
        {
          "internalType": "string",
          "name": "bio",
          "type": "string"
        },
        {
          "internalType": "string",
          "name": "avatar",
          "type": "string"
        }
      ],
      "name": "createOrUpdateProfile",
      "outputs": [],
      "stateMutability": "nonpayable",
      "type": "function"
    },
    {
      "inputs": [
        {
          "internalType": "string",
          "name": "name",
          "type": "string"
        },
        {
          "internalType": "string",
          "name": "description",
          "type": "string"
        },
        {
          "internalType": "uint256",
          "name": "amount",
          "type": "uint256"
        }
      ],
      "name": "createProject",
      "outputs": [],
      "stateMutability": "nonpayable",
      "type": "function"
    },
    {
      "inputs": [
        {
          "internalType": "uint256",
          "name": "",
          "type": "uint256"
        }
      ],
      "name": "disputeVotes",
      "outputs": [
        {
          "internalType": "uint256",
          "name": "",
          "type": "uint256"
        }
      ],
      "stateMutability": "view",
      "type": "function"
    },
    {
      "inputs": [
        {
          "internalType": "address",
          "name": "user",
          "type": "address"
        }
      ],
      "name": "getProfile",
      "outputs": [
        {
          "components": [
            {
              "internalType": "string",
              "name": "name",
              "type": "string"
            },
            {
              "internalType": "string",
              "name": "bio",
              "type": "string"
            },
            {
              "internalType": "string",
              "name": "avatar",
              "type": "string"
            }
          ],
          "internalType": "struct FreelanceDAO.Profile",
          "name": "",
          "type": "tuple"
        }
      ],
      "stateMutability": "view",
      "type": "function"
    },
    {
      "inputs": [
        {
          "internalType": "uint256",
          "name": "projectId",
          "type": "uint256"
        }
      ],
      "name": "markAsCompleted",
      "outputs": [],
      "stateMutability": "nonpayable",
      "type": "function"
    },
    {
      "inputs": [],
      "name": "nextProjectId",
      "outputs": [
        {
          "internalType": "uint256",
          "name": "",
          "type": "uint256"
        }
      ],
      "stateMutability": "view",
      "type": "function"
    },
    {
      "inputs": [
        {
          "internalType": "address",
          "name": "",
          "type": "address"
        }
      ],
      "name": "profiles",
      "outputs": [
        {
          "internalType": "string",
          "name": "name",
          "type": "string"
        },
        {
          "internalType": "string",
          "name": "bio",
          "type": "string"
        },
        {
          "internalType": "string",
          "name": "avatar",
          "type": "string"
        }
      ],
      "stateMutability": "view",
      "type": "function"
    },
    {
      "inputs": [
        {
          "internalType": "uint256",
          "name": "",
          "type": "uint256"
        }
      ],
      "name": "projects",
      "outputs": [
        {
          "internalType": "uint256",
          "name": "id",
          "type": "uint256"
        },
        {
          "internalType": "address",
          "name": "client",
          "type": "address"
        },
        {
          "internalType": "address",
          "name": "freelancer",
          "type": "address"
        },
        {
          "internalType": "uint256",
          "name": "amount",
          "type": "uint256"
        },
        {
          "internalType": "string",
          "name": "name",
          "type": "string"
        },
        {
          "internalType": "string",
          "name": "description",
          "type": "string"
        },
        {
          "internalType": "uint256",
          "name": "deadline",
          "type": "uint256"
        },
        {
          "internalType": "bool",
          "name": "isCompleted",
          "type": "bool"
        },
        {
          "internalType": "bool",
          "name": "isDisputed",
          "type": "bool"
        },
        {
          "internalType": "bool",
          "name": "isAccepted",
          "type": "bool"
        }
      ],
      "stateMutability": "view",
      "type": "function"
    },
    {
      "inputs": [
        {
          "internalType": "uint256",
          "name": "projectId",
          "type": "uint256"
        }
      ],
      "name": "raiseDispute",
      "outputs": [],
      "stateMutability": "nonpayable",
      "type": "function"
    },
    {
      "inputs": [
        {
          "internalType": "address",
          "name": "",
          "type": "address"
        }
      ],
      "name": "reputation",
      "outputs": [
        {
          "internalType": "uint256",
          "name": "",
          "type": "uint256"
        }
      ],
      "stateMutability": "view",
      "type": "function"
    },
    {
      "inputs": [
        {
          "internalType": "uint256",
          "name": "",
          "type": "uint256"
        }
      ],
      "name": "totalVotes",
      "outputs": [
        {
          "internalType": "uint256",
          "name": "",
          "type": "uint256"
        }
      ],
      "stateMutability": "view",
      "type": "function"
    },
    {
      "inputs": [
        {
          "internalType": "uint256",
          "name": "projectId",
          "type": "uint256"
        },
        {
          "internalType": "bool",
          "name": "voteForFreelancer",
          "type": "bool"
        }
      ],
      "name": "voteOnDispute",
      "outputs": [],
      "stateMutability": "nonpayable",
      "type": "function"
    },
    {
      "inputs": [
        {
          "internalType": "uint256",
          "name": "",
          "type": "uint256"
        },
        {
          "internalType": "address",
          "name": "",
          "type": "address"
        }
      ],
      "name": "votes",
      "outputs": [
        {
          "internalType": "bool",
          "name": "",
          "type": "bool"
        }
      ],
      "stateMutability": "view",
      "type": "function"
    }
  ],
  "bytecode": "0x608060405234801561001057600080fd5b506125c4806100206000396000f3fe6080604052600436106100e85760003560e01c80639da0ae3e1161008a578063bbe1562711610059578063bbe1562714610310578063c0a6026c1461034f578063d23254b414610378578063e935b7b1146103b5576100e8565b80639da0ae3e14610244578063a4f5df1214610281578063a5c1674e146102aa578063b9f79451146102d3576100e8565b806319e6e158116100c657806319e6e1581461018c57806323c55448146101c9578063639ab2ce146101f257806394aeb6131461021b576100e8565b8063037e40c8146100ed5780630f53a47014610109578063107046bd14610146575b600080fd5b61010760048036038101906101029190611a46565b6103e0565b005b34801561011557600080fd5b50610130600480360381019061012b9190611907565b61056a565b60405161013d9190612171565b60405180910390f35b34801561015257600080fd5b5061016d60048036038101906101689190611a46565b610779565b6040516101839a999897969594939291906121e5565b60405180910390f35b34801561019857600080fd5b506101b360048036038101906101ae9190611a46565b610944565b6040516101c09190612193565b60405180910390f35b3480156101d557600080fd5b506101f060048036038101906101eb91906119c7565b61095c565b005b3480156101fe57600080fd5b5061021960048036038101906102149190611930565b610b95565b005b34801561022757600080fd5b50610242600480360381019061023d9190611a46565b610c8b565b005b34801561025057600080fd5b5061026b60048036038101906102669190611a46565b610df7565b6040516102789190612193565b60405180910390f35b34801561028d57600080fd5b506102a860048036038101906102a39190611aab565b610e0f565b005b3480156102b657600080fd5b506102d160048036038101906102cc9190611a46565b61109c565b005b3480156102df57600080fd5b506102fa60048036038101906102f59190611907565b611248565b6040516103079190612193565b60405180910390f35b34801561031c57600080fd5b5061033760048036038101906103329190611907565b611260565b60405161034693929190611fa5565b60405180910390f35b34801561035b57600080fd5b5061037660048036038101906103719190611a46565b611422565b005b34801561038457600080fd5b5061039f600480360381019061039a9190611a6f565b61160c565b6040516103ac9190611f8a565b60405180910390f35b3480156103c157600080fd5b506103ca61163b565b6040516103d79190612193565b60405180910390f35b60008060008381526020019081526020016000209050600073ffffffffffffffffffffffffffffffffffffffff168160010160009054906101000a900473ffffffffffffffffffffffffffffffffffffffff1673ffffffffffffffffffffffffffffffffffffffff1614610489576040517f08c379a0000000000000000000000000000000000000000000000000000000008152600401610480906120d1565b60405180910390fd5b806003015434146104cf576040517f08c379a00000000000000000000000000000000000000000000000000000000081526004016104c690612111565b60405180910390fd5b338160010160006101000a81548173ffffffffffffffffffffffffffffffffffffffff021916908373ffffffffffffffffffffffffffffffffffffffff16021790555060018160070160026101000a81548160ff0219169083151502179055507f1e091207978c67f5b7cf9eeb3fb8836365508abdde783aa640a764e7930551f18260405161055e9190612193565b60405180910390a15050565b61057261179c565b600360008373ffffffffffffffffffffffffffffffffffffffff1673ffffffffffffffffffffffffffffffffffffffff1681526020019081526020016000206040518060600160405290816000820180546105cc90612401565b80601f01602080910402602001604051908101604052809291908181526020018280546105f890612401565b80156106455780601f1061061a57610100808354040283529160200191610645565b820191906000526020600020905b81548152906001019060200180831161062857829003601f168201915b5050505050815260200160018201805461065e90612401565b80601f016020809104026020016040519081016040528092919081815260200182805461068a90612401565b80156106d75780601f106106ac576101008083540402835291602001916106d7565b820191906000526020600020905b8154815290600101906020018083116106ba57829003601f168201915b505050505081526020016002820180546106f090612401565b80601f016020809104026020016040519081016040528092919081815260200182805461071c90612401565b80156107695780601f1061073e57610100808354040283529160200191610769565b820191906000526020600020905b81548152906001019060200180831161074c57829003601f168201915b5050505050815250509050919050565b60006020528060005260406000206000915090508060000154908060010160009054906101000a900473ffffffffffffffffffffffffffffffffffffffff16908060020160009054906101000a900473ffffffffffffffffffffffffffffffffffffffff16908060030154908060040180546107f490612401565b80601f016020809104026020016040519081016040528092919081815260200182805461082090612401565b801561086d5780601f106108425761010080835404028352916020019161086d565b820191906000526020600020905b81548152906001019060200180831161085057829003601f168201915b50505050509080600501805461088290612401565b80601f01602080910402602001604051908101604052809291908181526020018280546108ae90612401565b80156108fb5780601f106108d0576101008083540402835291602001916108fb565b820191906000526020600020905b8154815290600101906020018083116108de57829003601f168201915b5050505050908060060154908060070160009054906101000a900460ff16908060070160019054906101000a900460ff16908060070160029054906101000a900460ff1690508a565b60066020528060005260406000206000915090505481565b6040518061014001604052806001548152602001600073ffffffffffffffffffffffffffffffffffffffff1681526020013373ffffffffffffffffffffffffffffffffffffffff168152602001828152602001848152602001838152602001600081526020016000151581526020016000151581526020016000151581525060008060015481526020019081526020016000206000820151816000015560208201518160010160006101000a81548173ffffffffffffffffffffffffffffffffffffffff021916908373ffffffffffffffffffffffffffffffffffffffff16021790555060408201518160020160006101000a81548173ffffffffffffffffffffffffffffffffffffffff021916908373ffffffffffffffffffffffffffffffffffffffff160217905550606082015181600301556080820151816004019080519060200190610aad9291906117bd565b5060a0820151816005019080519060200190610aca9291906117bd565b5060c0820151816006015560e08201518160070160006101000a81548160ff0219169083151502179055506101008201518160070160016101000a81548160ff0219169083151502179055506101208201518160070160026101000a81548160ff0219169083151502179055509050507f89d08535246e9977769e1f3a9c7b5cf99c9ea6c5c7362972d02f1d0598fba5e0600154600033604051610b70939291906121ae565b60405180910390a160016000815480929190610b8b90612433565b9190505550505050565b604051806060016040528084815260200183815260200182815250600360003373ffffffffffffffffffffffffffffffffffffffff1673ffffffffffffffffffffffffffffffffffffffff1681526020019081526020016000206000820151816000019080519060200190610c0b9291906117bd565b506020820151816001019080519060200190610c289291906117bd565b506040820151816002019080519060200190610c459291906117bd565b509050507f6420daf1b58438e85465ef21dee378d307a509caab491149e3f066c5caf1266d33848484604051610c7e9493929190611f30565b60405180910390a1505050565b600080600083815260200190815260200160002090508060010160009054906101000a900473ffffffffffffffffffffffffffffffffffffffff1673ffffffffffffffffffffffffffffffffffffffff163373ffffffffffffffffffffffffffffffffffffffff1614610d33576040517f08c379a0000000000000000000000000000000000000000000000000000000008152600401610d2a90611ff1565b60405180910390fd5b8060070160009054906101000a900460ff16610d84576040517f08c379a0000000000000000000000000000000000000000000000000000000008152600401610d7b90612011565b60405180910390fd5b8060020160009054906101000a900473ffffffffffffffffffffffffffffffffffffffff1673ffffffffffffffffffffffffffffffffffffffff166108fc82600301549081150290604051600060405180830381858888f19350505050158015610df2573d6000803e3d6000fd5b505050565b60056020528060005260406000206000915090505481565b60008083815260200190815260200160002060070160019054906101000a900460ff16610e71576040517f08c379a0000000000000000000000000000000000000000000000000000000008152600401610e68906120b1565b60405180910390fd5b6004600083815260200190815260200160002060003373ffffffffffffffffffffffffffffffffffffffff1673ffffffffffffffffffffffffffffffffffffffff16815260200190815260200160002060009054906101000a900460ff1615610f0f576040517f08c379a0000000000000000000000000000000000000000000000000000000008152600401610f0690612091565b60405180910390fd5b60016004600084815260200190815260200160002060003373ffffffffffffffffffffffffffffffffffffffff1673ffffffffffffffffffffffffffffffffffffffff16815260200190815260200160002060006101000a81548160ff021916908315150217905550600660008381526020019081526020016000206000815480929190610f9c90612433565b91905055508015610fd157600560008381526020019081526020016000206000815480929190610fcb90612433565b91905055505b60036006600084815260200190815260200160002054106110985761102a82600260066000868152602001908152602001600020546110109190612346565b600560008681526020019081526020016000205411611641565b7f5a87909bff68caaaaf0b3fd9c74eeccc928832f879315e5c6fb7a73612f26c0c826002600660008681526020019081526020016000205461106c9190612346565b60056000868152602001908152602001600020541160405161108f92919061228f565b60405180910390a15b5050565b600080600083815260200190815260200160002090508060010160009054906101000a900473ffffffffffffffffffffffffffffffffffffffff1673ffffffffffffffffffffffffffffffffffffffff163373ffffffffffffffffffffffffffffffffffffffff16148061115f57508060020160009054906101000a900473ffffffffffffffffffffffffffffffffffffffff1673ffffffffffffffffffffffffffffffffffffffff163373ffffffffffffffffffffffffffffffffffffffff16145b61119e576040517f08c379a000000000000000000000000000000000000000000000000000000000815260040161119590612071565b60405180910390fd5b8060070160009054906101000a900460ff16156111f0576040517f08c379a00000000000000000000000000000000000000000000000000000000081526004016111e790612151565b60405180910390fd5b60018160070160016101000a81548160ff0219169083151502179055507f04901f83201c8724eadf084436db8aa391820bae6d11f9f78a17edb6f2eef3cf8260405161123c9190612193565b60405180910390a15050565b60026020528060005260406000206000915090505481565b600360205280600052604060002060009150905080600001805461128390612401565b80601f01602080910402602001604051908101604052809291908181526020018280546112af90612401565b80156112fc5780601f106112d1576101008083540402835291602001916112fc565b820191906000526020600020905b8154815290600101906020018083116112df57829003601f168201915b50505050509080600101805461131190612401565b80601f016020809104026020016040519081016040528092919081815260200182805461133d90612401565b801561138a5780601f1061135f5761010080835404028352916020019161138a565b820191906000526020600020905b81548152906001019060200180831161136d57829003601f168201915b50505050509080600201805461139f90612401565b80601f01602080910402602001604051908101604052809291908181526020018280546113cb90612401565b80156114185780601f106113ed57610100808354040283529160200191611418565b820191906000526020600020905b8154815290600101906020018083116113fb57829003601f168201915b5050505050905083565b600080600083815260200190815260200160002090508060020160009054906101000a900473ffffffffffffffffffffffffffffffffffffffff1673ffffffffffffffffffffffffffffffffffffffff163373ffffffffffffffffffffffffffffffffffffffff16146114ca576040517f08c379a00000000000000000000000000000000000000000000000000000000081526004016114c190612031565b60405180910390fd5b8060070160029054906101000a900460ff1661151b576040517f08c379a000000000000000000000000000000000000000000000000000000000815260040161151290612051565b60405180910390fd5b8060070160009054906101000a900460ff161561156d576040517f08c379a000000000000000000000000000000000000000000000000000000000815260040161156490612131565b60405180910390fd5b80600601544211156115b4576040517f08c379a00000000000000000000000000000000000000000000000000000000081526004016115ab906120f1565b60405180910390fd5b60018160070160006101000a81548160ff0219169083151502179055507f60d8df137e489b6216738e436244ca4700bd6d0c8371d3c8d9c80b54538111b9826040516116009190612193565b60405180910390a15050565b60046020528160005260406000206020528060005260406000206000915091509054906101000a900460ff1681565b60015481565b6000806000848152602001908152602001600020905081156116d1578060020160009054906101000a900473ffffffffffffffffffffffffffffffffffffffff1673ffffffffffffffffffffffffffffffffffffffff166108fc82600301549081150290604051600060405180830381858888f193505050501580156116cb573d6000803e3d6000fd5b50611741565b8060010160009054906101000a900473ffffffffffffffffffffffffffffffffffffffff1673ffffffffffffffffffffffffffffffffffffffff166108fc82600301549081150290604051600060405180830381858888f1935050505015801561173f573d6000803e3d6000fd5b505b60008160070160016101000a81548160ff0219169083151502179055507f5a87909bff68caaaaf0b3fd9c74eeccc928832f879315e5c6fb7a73612f26c0c838360405161178f92919061228f565b60405180910390a1505050565b60405180606001604052806060815260200160608152602001606081525090565b8280546117c990612401565b90600052602060002090601f0160209004810192826117eb5760008555611832565b82601f1061180457805160ff1916838001178555611832565b82800160010185558215611832579182015b82811115611831578251825591602001919060010190611816565b5b50905061183f9190611843565b5090565b5b8082111561185c576000816000905550600101611844565b5090565b600061187361186e846122e9565b6122b8565b90508281526020810184848401111561188b57600080fd5b6118968482856123bf565b509392505050565b6000813590506118ad81612549565b92915050565b6000813590506118c281612560565b92915050565b600082601f8301126118d957600080fd5b81356118e9848260208601611860565b91505092915050565b60008135905061190181612577565b92915050565b60006020828403121561191957600080fd5b60006119278482850161189e565b91505092915050565b60008060006060848603121561194557600080fd5b600084013567ffffffffffffffff81111561195f57600080fd5b61196b868287016118c8565b935050602084013567ffffffffffffffff81111561198857600080fd5b611994868287016118c8565b925050604084013567ffffffffffffffff8111156119b157600080fd5b6119bd868287016118c8565b9150509250925092565b6000806000606084860312156119dc57600080fd5b600084013567ffffffffffffffff8111156119f657600080fd5b611a02868287016118c8565b935050602084013567ffffffffffffffff811115611a1f57600080fd5b611a2b868287016118c8565b9250506040611a3c868287016118f2565b9150509250925092565b600060208284031215611a5857600080fd5b6000611a66848285016118f2565b91505092915050565b60008060408385031215611a8257600080fd5b6000611a90858286016118f2565b9250506020611aa18582860161189e565b9150509250929050565b60008060408385031215611abe57600080fd5b6000611acc858286016118f2565b9250506020611add858286016118b3565b9150509250929050565b611af081612377565b82525050565b611aff81612389565b82525050565b6000611b1082612319565b611b1a8185612324565b9350611b2a8185602086016123ce565b611b3381612538565b840191505092915050565b6000611b4982612319565b611b538185612335565b9350611b638185602086016123ce565b611b6c81612538565b840191505092915050565b6000611b84601783612335565b91507f4f6e6c7920636c69656e742063616e20636f6e6669726d0000000000000000006000830152602082019050919050565b6000611bc4601e83612335565b91507f50726f6a656374206e6f74206d61726b656420617320636f6d706c65746500006000830152602082019050919050565b6000611c04601883612335565b91507f4f6e6c7920667265656c616e6365722063616e206d61726b00000000000000006000830152602082019050919050565b6000611c44601283612335565b91507f5465726d73206e6f7420616363657074656400000000000000000000000000006000830152602082019050919050565b6000611c84602b83612335565b91507f4f6e6c7920636c69656e74206f7220667265656c616e6365722063616e20726160008301527f69736520646973707574650000000000000000000000000000000000000000006020830152604082019050919050565b6000611cea600d83612335565b91507f416c726561647920766f746564000000000000000000000000000000000000006000830152602082019050919050565b6000611d2a601b83612335565b91507f4e6f206469737075746520666f7220746869732070726f6a65637400000000006000830152602082019050919050565b6000611d6a601883612335565b91507f50726f6a65637420616c726561647920616363657074656400000000000000006000830152602082019050919050565b6000611daa600f83612335565b91507f446561646c696e652070617373656400000000000000000000000000000000006000830152602082019050919050565b6000611dea601a83612335565b91507f4d7573742073656e642074686520657861637420616d6f756e740000000000006000830152602082019050919050565b6000611e2a601983612335565b91507f50726f6a65637420616c726561647920636f6d706c65746564000000000000006000830152602082019050919050565b6000611e6a602283612335565b91507f43616e6e6f742064697370757465206120636f6d706c657465642070726f6a6560008301527f63740000000000000000000000000000000000000000000000000000000000006020830152604082019050919050565b60006060830160008301518482036000860152611ee08282611b05565b91505060208301518482036020860152611efa8282611b05565b91505060408301518482036040860152611f148282611b05565b9150508091505092915050565b611f2a816123b5565b82525050565b6000608082019050611f456000830187611ae7565b8181036020830152611f578186611b3e565b90508181036040830152611f6b8185611b3e565b90508181036060830152611f7f8184611b3e565b905095945050505050565b6000602082019050611f9f6000830184611af6565b92915050565b60006060820190508181036000830152611fbf8186611b3e565b90508181036020830152611fd38185611b3e565b90508181036040830152611fe78184611b3e565b9050949350505050565b6000602082019050818103600083015261200a81611b77565b9050919050565b6000602082019050818103600083015261202a81611bb7565b9050919050565b6000602082019050818103600083015261204a81611bf7565b9050919050565b6000602082019050818103600083015261206a81611c37565b9050919050565b6000602082019050818103600083015261208a81611c77565b9050919050565b600060208201905081810360008301526120aa81611cdd565b9050919050565b600060208201905081810360008301526120ca81611d1d565b9050919050565b600060208201905081810360008301526120ea81611d5d565b9050919050565b6000602082019050818103600083015261210a81611d9d565b9050919050565b6000602082019050818103600083015261212a81611ddd565b9050919050565b6000602082019050818103600083015261214a81611e1d565b9050919050565b6000602082019050818103600083015261216a81611e5d565b9050919050565b6000602082019050818103600083015261218b8184611ec3565b905092915050565b60006020820190506121a86000830184611f21565b92915050565b60006060820190506121c36000830186611f21565b6121d06020830185611ae7565b6121dd6040830184611ae7565b949350505050565b6000610140820190506121fb600083018d611f21565b612208602083018c611ae7565b612215604083018b611ae7565b612222606083018a611f21565b81810360808301526122348189611b3e565b905081810360a08301526122488188611b3e565b905061225760c0830187611f21565b61226460e0830186611af6565b612272610100830185611af6565b612280610120830184611af6565b9b9a5050505050505050505050565b60006040820190506122a46000830185611f21565b6122b16020830184611af6565b9392505050565b6000604051905081810181811067ffffffffffffffff821117156122df576122de612509565b5b8060405250919050565b600067ffffffffffffffff82111561230457612303612509565b5b601f19601f8301169050602081019050919050565b600081519050919050565b600082825260208201905092915050565b600082825260208201905092915050565b6000612351826123b5565b915061235c836123b5565b92508261236c5761236b6124ab565b5b828204905092915050565b600061238282612395565b9050919050565b60008115159050919050565b600073ffffffffffffffffffffffffffffffffffffffff82169050919050565b6000819050919050565b82818337600083830152505050565b60005b838110156123ec5780820151818401526020810190506123d1565b838111156123fb576000848401525b50505050565b6000600282049050600182168061241957607f821691505b6020821081141561242d5761242c6124da565b5b50919050565b600061243e826123b5565b91507fffffffffffffffffffffffffffffffffffffffffffffffffffffffffffffffff8214156124715761247061247c565b5b600182019050919050565b7f4e487b7100000000000000000000000000000000000000000000000000000000600052601160045260246000fd5b7f4e487b7100000000000000000000000000000000000000000000000000000000600052601260045260246000fd5b7f4e487b7100000000000000000000000000000000000000000000000000000000600052602260045260246000fd5b7f4e487b7100000000000000000000000000000000000000000000000000000000600052604160045260246000fd5b6000601f19601f8301169050919050565b61255281612377565b811461255d57600080fd5b50565b61256981612389565b811461257457600080fd5b50565b612580816123b5565b811461258b57600080fd5b5056fea264697066735822122025f435c2f59b0a3eaa653492f764b4ecc0ba1eaf853291fc4e0eed76900c25e964736f6c63430008000033",
  "linkReferences": {},
  "deployedLinkReferences": {}
}