{
  "_format": "hh-sol-artifact-1",
  "contractName": "FreelanceDAO",
  "sourceName": "contracts/FreelanceDAO.sol",
  "abi": [
    {
      "anonymous": false,
      "inputs": [
        {
          "indexed": false,
          "internalType": "uint256",
          "name": "projectId",
          "type": "uint256"
        }
      ],
      "name": "DisputeRaised",
      "type": "event"
    },
    {
      "anonymous": false,
      "inputs": [
        {
          "indexed": false,
          "internalType": "uint256",
          "name": "projectId",
          "type": "uint256"
        },
        {
          "indexed": false,
          "internalType": "bool",
          "name": "voteForFreelancer",
          "type": "bool"
        }
      ],
      "name": "DisputeResolved",
      "type": "event"
    },
    {
      "anonymous": false,
      "inputs": [
        {
          "indexed": false,
          "internalType": "address",
          "name": "user",
          "type": "address"
        },
        {
          "indexed": false,
          "internalType": "string",
          "name": "name",
          "type": "string"
        },
        {
          "indexed": false,
          "internalType": "string",
          "name": "bio",
          "type": "string"
        },
        {
          "indexed": false,
          "internalType": "string",
          "name": "avatar",
          "type": "string"
        }
      ],
      "name": "ProfileUpdated",
      "type": "event"
    },
    {
      "anonymous": false,
      "inputs": [
        {
          "indexed": false,
          "internalType": "uint256",
          "name": "projectId",
          "type": "uint256"
        }
      ],
      "name": "ProjectCompleted",
      "type": "event"
    },
    {
      "anonymous": false,
      "inputs": [
        {
          "indexed": false,
          "internalType": "uint256",
          "name": "projectId",
          "type": "uint256"
        },
        {
          "indexed": false,
          "internalType": "address",
          "name": "client",
          "type": "address"
        },
        {
          "indexed": false,
          "internalType": "address",
          "name": "freelancer",
          "type": "address"
        }
      ],
      "name": "ProjectCreated",
      "type": "event"
    },
    {
      "anonymous": false,
      "inputs": [
        {
          "indexed": false,
          "internalType": "uint256",
          "name": "projectId",
          "type": "uint256"
        }
      ],
      "name": "TermsAccepted",
      "type": "event"
    },
    {
      "inputs": [
        {
          "internalType": "uint256",
          "name": "projectId",
          "type": "uint256"
        }
      ],
      "name": "acceptTerms",
      "outputs": [],
      "stateMutability": "payable",
      "type": "function"
    },
    {
      "inputs": [
        {
          "internalType": "uint256",
          "name": "projectId",
          "type": "uint256"
        }
      ],
      "name": "confirmCompletion",
      "outputs": [],
      "stateMutability": "nonpayable",
      "type": "function"
    },
    {
      "inputs": [
        {
          "internalType": "string",
          "name": "name",
          "type": "string"
        },
        {
          "internalType": "string",
          "name": "bio",
          "type": "string"
        },
        {
          "internalType": "string",
          "name": "avatar",
          "type": "string"
        }
      ],
      "name": "createOrUpdateProfile",
      "outputs": [],
      "stateMutability": "nonpayable",
      "type": "function"
    },
    {
      "inputs": [
        {
          "internalType": "string",
          "name": "name",
          "type": "string"
        },
        {
          "internalType": "string",
          "name": "description",
          "type": "string"
        },
        {
          "internalType": "uint256",
          "name": "amount",
          "type": "uint256"
        }
      ],
      "name": "createProject",
      "outputs": [],
      "stateMutability": "nonpayable",
      "type": "function"
    },
    {
      "inputs": [
        {
          "internalType": "uint256",
          "name": "",
          "type": "uint256"
        }
      ],
      "name": "disputeVotes",
      "outputs": [
        {
          "internalType": "uint256",
          "name": "",
          "type": "uint256"
        }
      ],
      "stateMutability": "view",
      "type": "function"
    },
    {
      "inputs": [
        {
          "internalType": "address",
          "name": "user",
          "type": "address"
        }
      ],
      "name": "getProfile",
      "outputs": [
        {
          "components": [
            {
              "internalType": "string",
              "name": "name",
              "type": "string"
            },
            {
              "internalType": "string",
              "name": "bio",
              "type": "string"
            },
            {
              "internalType": "string",
              "name": "avatar",
              "type": "string"
            }
          ],
          "internalType": "struct FreelanceDAO.Profile",
          "name": "",
          "type": "tuple"
        }
      ],
      "stateMutability": "view",
      "type": "function"
    },
    {
      "inputs": [
        {
          "internalType": "uint256",
          "name": "projectId",
          "type": "uint256"
        }
      ],
      "name": "markAsCompleted",
      "outputs": [],
      "stateMutability": "nonpayable",
      "type": "function"
    },
    {
      "inputs": [],
      "name": "nextProjectId",
      "outputs": [
        {
          "internalType": "uint256",
          "name": "",
          "type": "uint256"
        }
      ],
      "stateMutability": "view",
      "type": "function"
    },
    {
      "inputs": [
        {
          "internalType": "address",
          "name": "",
          "type": "address"
        }
      ],
      "name": "profiles",
      "outputs": [
        {
          "internalType": "string",
          "name": "name",
          "type": "string"
        },
        {
          "internalType": "string",
          "name": "bio",
          "type": "string"
        },
        {
          "internalType": "string",
          "name": "avatar",
          "type": "string"
        }
      ],
      "stateMutability": "view",
      "type": "function"
    },
    {
      "inputs": [
        {
          "internalType": "uint256",
          "name": "",
          "type": "uint256"
        }
      ],
      "name": "projects",
      "outputs": [
        {
          "internalType": "uint256",
          "name": "id",
          "type": "uint256"
        },
        {
          "internalType": "address",
          "name": "client",
          "type": "address"
        },
        {
          "internalType": "address",
          "name": "freelancer",
          "type": "address"
        },
        {
          "internalType": "uint256",
          "name": "amount",
          "type": "uint256"
        },
        {
          "internalType": "string",
          "name": "name",
          "type": "string"
        },
        {
          "internalType": "string",
          "name": "description",
          "type": "string"
        },
        {
          "internalType": "uint256",
          "name": "deadline",
          "type": "uint256"
        },
        {
          "internalType": "bool",
          "name": "isCompleted",
          "type": "bool"
        },
        {
          "internalType": "bool",
          "name": "isDisputed",
          "type": "bool"
        },
        {
          "internalType": "bool",
          "name": "isAccepted",
          "type": "bool"
        }
      ],
      "stateMutability": "view",
      "type": "function"
    },
    {
      "inputs": [
        {
          "internalType": "uint256",
          "name": "projectId",
          "type": "uint256"
        }
      ],
      "name": "raiseDispute",
      "outputs": [],
      "stateMutability": "nonpayable",
      "type": "function"
    },
    {
      "inputs": [
        {
          "internalType": "address",
          "name": "",
          "type": "address"
        }
      ],
      "name": "reputation",
      "outputs": [
        {
          "internalType": "uint256",
          "name": "",
          "type": "uint256"
        }
      ],
      "stateMutability": "view",
      "type": "function"
    },
    {
      "inputs": [
        {
          "internalType": "uint256",
          "name": "",
          "type": "uint256"
        }
      ],
      "name": "totalVotes",
      "outputs": [
        {
          "internalType": "uint256",
          "name": "",
          "type": "uint256"
        }
      ],
      "stateMutability": "view",
      "type": "function"
    },
    {
      "inputs": [
        {
          "internalType": "uint256",
          "name": "projectId",
          "type": "uint256"
        },
        {
          "internalType": "bool",
          "name": "voteForFreelancer",
          "type": "bool"
        }
      ],
      "name": "voteOnDispute",
      "outputs": [],
      "stateMutability": "nonpayable",
      "type": "function"
    },
    {
      "inputs": [
        {
          "internalType": "uint256",
          "name": "",
          "type": "uint256"
        },
        {
          "internalType": "address",
          "name": "",
          "type": "address"
        }
      ],
      "name": "votes",
      "outputs": [
        {
          "internalType": "bool",
          "name": "",
          "type": "bool"
        }
      ],
      "stateMutability": "view",
      "type": "function"
    }
  ],
  "bytecode": "0x608060405234801561001057600080fd5b50612626806100206000396000f3fe6080604052600436106100e85760003560e01c80639da0ae3e1161008a578063bbe1562711610059578063bbe1562714610310578063c0a6026c1461034f578063d23254b414610378578063e935b7b1146103b5576100e8565b80639da0ae3e14610244578063a4f5df1214610281578063a5c1674e146102aa578063b9f79451146102d3576100e8565b806319e6e158116100c657806319e6e1581461018c57806323c55448146101c9578063639ab2ce146101f257806394aeb6131461021b576100e8565b8063037e40c8146100ed5780630f53a47014610109578063107046bd14610146575b600080fd5b61010760048036038101906101029190611a52565b6103e0565b005b34801561011557600080fd5b50610130600480360381019061012b9190611913565b61056a565b60405161013d919061217d565b60405180910390f35b34801561015257600080fd5b5061016d60048036038101906101689190611a52565b610779565b6040516101839a999897969594939291906121f1565b60405180910390f35b34801561019857600080fd5b506101b360048036038101906101ae9190611a52565b610944565b6040516101c0919061219f565b60405180910390f35b3480156101d557600080fd5b506101f060048036038101906101eb91906119d3565b61095c565b005b3480156101fe57600080fd5b506102196004803603810190610214919061193c565b610ba1565b005b34801561022757600080fd5b50610242600480360381019061023d9190611a52565b610c97565b005b34801561025057600080fd5b5061026b60048036038101906102669190611a52565b610e03565b604051610278919061219f565b60405180910390f35b34801561028d57600080fd5b506102a860048036038101906102a39190611ab7565b610e1b565b005b3480156102b657600080fd5b506102d160048036038101906102cc9190611a52565b6110a8565b005b3480156102df57600080fd5b506102fa60048036038101906102f59190611913565b611254565b604051610307919061219f565b60405180910390f35b34801561031c57600080fd5b5061033760048036038101906103329190611913565b61126c565b60405161034693929190611fb1565b60405180910390f35b34801561035b57600080fd5b5061037660048036038101906103719190611a52565b61142e565b005b34801561038457600080fd5b5061039f600480360381019061039a9190611a7b565b611618565b6040516103ac9190611f96565b60405180910390f35b3480156103c157600080fd5b506103ca611647565b6040516103d7919061219f565b60405180910390f35b60008060008381526020019081526020016000209050600073ffffffffffffffffffffffffffffffffffffffff168160010160009054906101000a900473ffffffffffffffffffffffffffffffffffffffff1673ffffffffffffffffffffffffffffffffffffffff1614610489576040517f08c379a0000000000000000000000000000000000000000000000000000000008152600401610480906120dd565b60405180910390fd5b806003015434146104cf576040517f08c379a00000000000000000000000000000000000000000000000000000000081526004016104c69061211d565b60405180910390fd5b338160010160006101000a81548173ffffffffffffffffffffffffffffffffffffffff021916908373ffffffffffffffffffffffffffffffffffffffff16021790555060018160070160026101000a81548160ff0219169083151502179055507f1e091207978c67f5b7cf9eeb3fb8836365508abdde783aa640a764e7930551f18260405161055e919061219f565b60405180910390a15050565b6105726117a8565b600360008373ffffffffffffffffffffffffffffffffffffffff1673ffffffffffffffffffffffffffffffffffffffff1681526020019081526020016000206040518060600160405290816000820180546105cc90612463565b80601f01602080910402602001604051908101604052809291908181526020018280546105f890612463565b80156106455780601f1061061a57610100808354040283529160200191610645565b820191906000526020600020905b81548152906001019060200180831161062857829003601f168201915b5050505050815260200160018201805461065e90612463565b80601f016020809104026020016040519081016040528092919081815260200182805461068a90612463565b80156106d75780601f106106ac576101008083540402835291602001916106d7565b820191906000526020600020905b8154815290600101906020018083116106ba57829003601f168201915b505050505081526020016002820180546106f090612463565b80601f016020809104026020016040519081016040528092919081815260200182805461071c90612463565b80156107695780601f1061073e57610100808354040283529160200191610769565b820191906000526020600020905b81548152906001019060200180831161074c57829003601f168201915b5050505050815250509050919050565b60006020528060005260406000206000915090508060000154908060010160009054906101000a900473ffffffffffffffffffffffffffffffffffffffff16908060020160009054906101000a900473ffffffffffffffffffffffffffffffffffffffff16908060030154908060040180546107f490612463565b80601f016020809104026020016040519081016040528092919081815260200182805461082090612463565b801561086d5780601f106108425761010080835404028352916020019161086d565b820191906000526020600020905b81548152906001019060200180831161085057829003601f168201915b50505050509080600501805461088290612463565b80601f01602080910402602001604051908101604052809291908181526020018280546108ae90612463565b80156108fb5780601f106108d0576101008083540402835291602001916108fb565b820191906000526020600020905b8154815290600101906020018083116108de57829003601f168201915b5050505050908060060154908060070160009054906101000a900460ff16908060070160019054906101000a900460ff16908060070160029054906101000a900460ff1690508a565b60066020528060005260406000206000915090505481565b6040518061014001604052806001548152602001600073ffffffffffffffffffffffffffffffffffffffff1681526020013373ffffffffffffffffffffffffffffffffffffffff168152602001828152602001848152602001838152602001610e10426109c99190612352565b81526020016000151581526020016000151581526020016000151581525060008060015481526020019081526020016000206000820151816000015560208201518160010160006101000a81548173ffffffffffffffffffffffffffffffffffffffff021916908373ffffffffffffffffffffffffffffffffffffffff16021790555060408201518160020160006101000a81548173ffffffffffffffffffffffffffffffffffffffff021916908373ffffffffffffffffffffffffffffffffffffffff160217905550606082015181600301556080820151816004019080519060200190610ab99291906117c9565b5060a0820151816005019080519060200190610ad69291906117c9565b5060c0820151816006015560e08201518160070160006101000a81548160ff0219169083151502179055506101008201518160070160016101000a81548160ff0219169083151502179055506101208201518160070160026101000a81548160ff0219169083151502179055509050507f89d08535246e9977769e1f3a9c7b5cf99c9ea6c5c7362972d02f1d0598fba5e0600154600033604051610b7c939291906121ba565b60405180910390a160016000815480929190610b9790612495565b9190505550505050565b604051806060016040528084815260200183815260200182815250600360003373ffffffffffffffffffffffffffffffffffffffff1673ffffffffffffffffffffffffffffffffffffffff1681526020019081526020016000206000820151816000019080519060200190610c179291906117c9565b506020820151816001019080519060200190610c349291906117c9565b506040820151816002019080519060200190610c519291906117c9565b509050507f6420daf1b58438e85465ef21dee378d307a509caab491149e3f066c5caf1266d33848484604051610c8a9493929190611f3c565b60405180910390a1505050565b600080600083815260200190815260200160002090508060010160009054906101000a900473ffffffffffffffffffffffffffffffffffffffff1673ffffffffffffffffffffffffffffffffffffffff163373ffffffffffffffffffffffffffffffffffffffff1614610d3f576040517f08c379a0000000000000000000000000000000000000000000000000000000008152600401610d3690611ffd565b60405180910390fd5b8060070160009054906101000a900460ff16610d90576040517f08c379a0000000000000000000000000000000000000000000000000000000008152600401610d879061201d565b60405180910390fd5b8060020160009054906101000a900473ffffffffffffffffffffffffffffffffffffffff1673ffffffffffffffffffffffffffffffffffffffff166108fc82600301549081150290604051600060405180830381858888f19350505050158015610dfe573d6000803e3d6000fd5b505050565b60056020528060005260406000206000915090505481565b60008083815260200190815260200160002060070160019054906101000a900460ff16610e7d576040517f08c379a0000000000000000000000000000000000000000000000000000000008152600401610e74906120bd565b60405180910390fd5b6004600083815260200190815260200160002060003373ffffffffffffffffffffffffffffffffffffffff1673ffffffffffffffffffffffffffffffffffffffff16815260200190815260200160002060009054906101000a900460ff1615610f1b576040517f08c379a0000000000000000000000000000000000000000000000000000000008152600401610f129061209d565b60405180910390fd5b60016004600084815260200190815260200160002060003373ffffffffffffffffffffffffffffffffffffffff1673ffffffffffffffffffffffffffffffffffffffff16815260200190815260200160002060006101000a81548160ff021916908315150217905550600660008381526020019081526020016000206000815480929190610fa890612495565b91905055508015610fdd57600560008381526020019081526020016000206000815480929190610fd790612495565b91905055505b60036006600084815260200190815260200160002054106110a457611036826002600660008681526020019081526020016000205461101c91906123a8565b60056000868152602001908152602001600020541161164d565b7f5a87909bff68caaaaf0b3fd9c74eeccc928832f879315e5c6fb7a73612f26c0c826002600660008681526020019081526020016000205461107891906123a8565b60056000868152602001908152602001600020541160405161109b92919061229b565b60405180910390a15b5050565b600080600083815260200190815260200160002090508060010160009054906101000a900473ffffffffffffffffffffffffffffffffffffffff1673ffffffffffffffffffffffffffffffffffffffff163373ffffffffffffffffffffffffffffffffffffffff16148061116b57508060020160009054906101000a900473ffffffffffffffffffffffffffffffffffffffff1673ffffffffffffffffffffffffffffffffffffffff163373ffffffffffffffffffffffffffffffffffffffff16145b6111aa576040517f08c379a00000000000000000000000000000000000000000000000000000000081526004016111a19061207d565b60405180910390fd5b8060070160009054906101000a900460ff16156111fc576040517f08c379a00000000000000000000000000000000000000000000000000000000081526004016111f39061215d565b60405180910390fd5b60018160070160016101000a81548160ff0219169083151502179055507f04901f83201c8724eadf084436db8aa391820bae6d11f9f78a17edb6f2eef3cf82604051611248919061219f565b60405180910390a15050565b60026020528060005260406000206000915090505481565b600360205280600052604060002060009150905080600001805461128f90612463565b80601f01602080910402602001604051908101604052809291908181526020018280546112bb90612463565b80156113085780601f106112dd57610100808354040283529160200191611308565b820191906000526020600020905b8154815290600101906020018083116112eb57829003601f168201915b50505050509080600101805461131d90612463565b80601f016020809104026020016040519081016040528092919081815260200182805461134990612463565b80156113965780601f1061136b57610100808354040283529160200191611396565b820191906000526020600020905b81548152906001019060200180831161137957829003601f168201915b5050505050908060020180546113ab90612463565b80601f01602080910402602001604051908101604052809291908181526020018280546113d790612463565b80156114245780601f106113f957610100808354040283529160200191611424565b820191906000526020600020905b81548152906001019060200180831161140757829003601f168201915b5050505050905083565b600080600083815260200190815260200160002090508060020160009054906101000a900473ffffffffffffffffffffffffffffffffffffffff1673ffffffffffffffffffffffffffffffffffffffff163373ffffffffffffffffffffffffffffffffffffffff16146114d6576040517f08c379a00000000000000000000000000000000000000000000000000000000081526004016114cd9061203d565b60405180910390fd5b8060070160029054906101000a900460ff16611527576040517f08c379a000000000000000000000000000000000000000000000000000000000815260040161151e9061205d565b60405180910390fd5b8060070160009054906101000a900460ff1615611579576040517f08c379a00000000000000000000000000000000000000000000000000000000081526004016115709061213d565b60405180910390fd5b80600601544211156115c0576040517f08c379a00000000000000000000000000000000000000000000000000000000081526004016115b7906120fd565b60405180910390fd5b60018160070160006101000a81548160ff0219169083151502179055507f60d8df137e489b6216738e436244ca4700bd6d0c8371d3c8d9c80b54538111b98260405161160c919061219f565b60405180910390a15050565b60046020528160005260406000206020528060005260406000206000915091509054906101000a900460ff1681565b60015481565b6000806000848152602001908152602001600020905081156116dd578060020160009054906101000a900473ffffffffffffffffffffffffffffffffffffffff1673ffffffffffffffffffffffffffffffffffffffff166108fc82600301549081150290604051600060405180830381858888f193505050501580156116d7573d6000803e3d6000fd5b5061174d565b8060010160009054906101000a900473ffffffffffffffffffffffffffffffffffffffff1673ffffffffffffffffffffffffffffffffffffffff166108fc82600301549081150290604051600060405180830381858888f1935050505015801561174b573d6000803e3d6000fd5b505b60008160070160016101000a81548160ff0219169083151502179055507f5a87909bff68caaaaf0b3fd9c74eeccc928832f879315e5c6fb7a73612f26c0c838360405161179b92919061229b565b60405180910390a1505050565b60405180606001604052806060815260200160608152602001606081525090565b8280546117d590612463565b90600052602060002090601f0160209004810192826117f7576000855561183e565b82601f1061181057805160ff191683800117855561183e565b8280016001018555821561183e579182015b8281111561183d578251825591602001919060010190611822565b5b50905061184b919061184f565b5090565b5b80821115611868576000816000905550600101611850565b5090565b600061187f61187a846122f5565b6122c4565b90508281526020810184848401111561189757600080fd5b6118a2848285612421565b509392505050565b6000813590506118b9816125ab565b92915050565b6000813590506118ce816125c2565b92915050565b600082601f8301126118e557600080fd5b81356118f584826020860161186c565b91505092915050565b60008135905061190d816125d9565b92915050565b60006020828403121561192557600080fd5b6000611933848285016118aa565b91505092915050565b60008060006060848603121561195157600080fd5b600084013567ffffffffffffffff81111561196b57600080fd5b611977868287016118d4565b935050602084013567ffffffffffffffff81111561199457600080fd5b6119a0868287016118d4565b925050604084013567ffffffffffffffff8111156119bd57600080fd5b6119c9868287016118d4565b9150509250925092565b6000806000606084860312156119e857600080fd5b600084013567ffffffffffffffff811115611a0257600080fd5b611a0e868287016118d4565b935050602084013567ffffffffffffffff811115611a2b57600080fd5b611a37868287016118d4565b9250506040611a48868287016118fe565b9150509250925092565b600060208284031215611a6457600080fd5b6000611a72848285016118fe565b91505092915050565b60008060408385031215611a8e57600080fd5b6000611a9c858286016118fe565b9250506020611aad858286016118aa565b9150509250929050565b60008060408385031215611aca57600080fd5b6000611ad8858286016118fe565b9250506020611ae9858286016118bf565b9150509250929050565b611afc816123d9565b82525050565b611b0b816123eb565b82525050565b6000611b1c82612325565b611b268185612330565b9350611b36818560208601612430565b611b3f8161259a565b840191505092915050565b6000611b5582612325565b611b5f8185612341565b9350611b6f818560208601612430565b611b788161259a565b840191505092915050565b6000611b90601783612341565b91507f4f6e6c7920636c69656e742063616e20636f6e6669726d0000000000000000006000830152602082019050919050565b6000611bd0601e83612341565b91507f50726f6a656374206e6f74206d61726b656420617320636f6d706c65746500006000830152602082019050919050565b6000611c10601883612341565b91507f4f6e6c7920667265656c616e6365722063616e206d61726b00000000000000006000830152602082019050919050565b6000611c50601283612341565b91507f5465726d73206e6f7420616363657074656400000000000000000000000000006000830152602082019050919050565b6000611c90602b83612341565b91507f4f6e6c7920636c69656e74206f7220667265656c616e6365722063616e20726160008301527f69736520646973707574650000000000000000000000000000000000000000006020830152604082019050919050565b6000611cf6600d83612341565b91507f416c726561647920766f746564000000000000000000000000000000000000006000830152602082019050919050565b6000611d36601b83612341565b91507f4e6f206469737075746520666f7220746869732070726f6a65637400000000006000830152602082019050919050565b6000611d76601883612341565b91507f50726f6a65637420616c726561647920616363657074656400000000000000006000830152602082019050919050565b6000611db6600f83612341565b91507f446561646c696e652070617373656400000000000000000000000000000000006000830152602082019050919050565b6000611df6601a83612341565b91507f4d7573742073656e642074686520657861637420616d6f756e740000000000006000830152602082019050919050565b6000611e36601983612341565b91507f50726f6a65637420616c726561647920636f6d706c65746564000000000000006000830152602082019050919050565b6000611e76602283612341565b91507f43616e6e6f742064697370757465206120636f6d706c657465642070726f6a6560008301527f63740000000000000000000000000000000000000000000000000000000000006020830152604082019050919050565b60006060830160008301518482036000860152611eec8282611b11565b91505060208301518482036020860152611f068282611b11565b91505060408301518482036040860152611f208282611b11565b9150508091505092915050565b611f3681612417565b82525050565b6000608082019050611f516000830187611af3565b8181036020830152611f638186611b4a565b90508181036040830152611f778185611b4a565b90508181036060830152611f8b8184611b4a565b905095945050505050565b6000602082019050611fab6000830184611b02565b92915050565b60006060820190508181036000830152611fcb8186611b4a565b90508181036020830152611fdf8185611b4a565b90508181036040830152611ff38184611b4a565b9050949350505050565b6000602082019050818103600083015261201681611b83565b9050919050565b6000602082019050818103600083015261203681611bc3565b9050919050565b6000602082019050818103600083015261205681611c03565b9050919050565b6000602082019050818103600083015261207681611c43565b9050919050565b6000602082019050818103600083015261209681611c83565b9050919050565b600060208201905081810360008301526120b681611ce9565b9050919050565b600060208201905081810360008301526120d681611d29565b9050919050565b600060208201905081810360008301526120f681611d69565b9050919050565b6000602082019050818103600083015261211681611da9565b9050919050565b6000602082019050818103600083015261213681611de9565b9050919050565b6000602082019050818103600083015261215681611e29565b9050919050565b6000602082019050818103600083015261217681611e69565b9050919050565b600060208201905081810360008301526121978184611ecf565b905092915050565b60006020820190506121b46000830184611f2d565b92915050565b60006060820190506121cf6000830186611f2d565b6121dc6020830185611af3565b6121e96040830184611af3565b949350505050565b600061014082019050612207600083018d611f2d565b612214602083018c611af3565b612221604083018b611af3565b61222e606083018a611f2d565b81810360808301526122408189611b4a565b905081810360a08301526122548188611b4a565b905061226360c0830187611f2d565b61227060e0830186611b02565b61227e610100830185611b02565b61228c610120830184611b02565b9b9a5050505050505050505050565b60006040820190506122b06000830185611f2d565b6122bd6020830184611b02565b9392505050565b6000604051905081810181811067ffffffffffffffff821117156122eb576122ea61256b565b5b8060405250919050565b600067ffffffffffffffff8211156123105761230f61256b565b5b601f19601f8301169050602081019050919050565b600081519050919050565b600082825260208201905092915050565b600082825260208201905092915050565b600061235d82612417565b915061236883612417565b9250827fffffffffffffffffffffffffffffffffffffffffffffffffffffffffffffffff0382111561239d5761239c6124de565b5b828201905092915050565b60006123b382612417565b91506123be83612417565b9250826123ce576123cd61250d565b5b828204905092915050565b60006123e4826123f7565b9050919050565b60008115159050919050565b600073ffffffffffffffffffffffffffffffffffffffff82169050919050565b6000819050919050565b82818337600083830152505050565b60005b8381101561244e578082015181840152602081019050612433565b8381111561245d576000848401525b50505050565b6000600282049050600182168061247b57607f821691505b6020821081141561248f5761248e61253c565b5b50919050565b60006124a082612417565b91507fffffffffffffffffffffffffffffffffffffffffffffffffffffffffffffffff8214156124d3576124d26124de565b5b600182019050919050565b7f4e487b7100000000000000000000000000000000000000000000000000000000600052601160045260246000fd5b7f4e487b7100000000000000000000000000000000000000000000000000000000600052601260045260246000fd5b7f4e487b7100000000000000000000000000000000000000000000000000000000600052602260045260246000fd5b7f4e487b7100000000000000000000000000000000000000000000000000000000600052604160045260246000fd5b6000601f19601f8301169050919050565b6125b4816123d9565b81146125bf57600080fd5b50565b6125cb816123eb565b81146125d657600080fd5b50565b6125e281612417565b81146125ed57600080fd5b5056fea2646970667358221220c58f26fca493dd06f53cb592d7f54f223d0edfec4ad5965202f8f57468089e6d64736f6c63430008000033",
  "linkReferences": {},
  "deployedLinkReferences": {}
}